:100000000C9462000C948A000C948A000C941207E1
:100010000C9412070C9412070C948A000C948A001A
:100020000C948A000C948A000C948A000C948A0028
:100030000C948A000C948A000C948A000C948A0018
:100040000C94C8060C948A000C9496060C947006C6
:100050000C948A000C948A000C948A000C948A00F8
:100060000C948A000C948A000000000024002700F1
:100070002A0000000000250028002B0000000000DE
:1000800023002600290004040404040404040202DA
:100090000202020203030303030301020408102007
:1000A0004080010204081020010204081020000012
:1000B0000008000201000003040700000000000027
:1000C0000000750711241FBECFEFD8E0DEBFCDBF03
:1000D00013E0A0E0B1E0EEECF9E102C005900D9272
:1000E000A639B107D9F724E0A6E9B3E001C01D9213
:1000F000A139B207E1F710E0C2E6D0E004C02197D1
:10010000FE010E94DF0CC136D107C9F70E94EB0740
:100110000C94E50C0C940000DF92EF92FF920F9389
:100120001F93CF93DF93EC0180917304909174043B
:100130006981DC01ED91FC910190F081E02D099540
:100140008091730490917404DC01ED91FC91019015
:10015000F081E02D68810995809173049091740479
:10016000DC01ED91FC910190F081E02D6A8109950F
:100170008091730490917404DC01ED91FC910190E5
:10018000F081E02D6B810995809173049091740446
:10019000DC01ED91FC910190F081E02D6C810995DD
:1001A0008091730490917404DC01ED91FC910190B5
:1001B000F081E02D6D810995809173049091740414
:1001C000DC01ED91FC910190F081E02D6E810995AB
:1001D0000F8118850E5F1F4F8091730490917404F6
:1001E000E12EFF24DC01ED91FC910190F081E02DE6
:1001F0006E2D09958091730490917404DC01ED914A
:10020000FC910190F081E02D602F09950E0D1F2DBE
:10021000111D8E81080F111DD12C809173049091B6
:100220007404DC01ED91FC910190F081E02DED2C46
:10023000F12C2F813885E216F30660F4EC0EFD1EDA
:10024000D70119966C910995F7018185080F111D49
:10025000D394E3CF612F0995809173049091740436
:10026000DC01ED91FC910190F081E02D602FDF9198
:10027000CF911F910F91FF90EF90DF900994AF9273
:10028000BF92CF92DF92EF92FF920F931F93CF9383
:10029000DF936C017B018B01040F151FEB015E01E5
:1002A000AE18BF08C017D10759F06991D601ED917A
:1002B000FC910190F081E02DC6010995892B79F719
:1002C000C501DF91CF911F910F91FF90EF90DF90CB
:1002D000CF90BF90AF900895FC01538D448D252F92
:1002E00030E0842F90E0821B930B541710F0CF96D0
:1002F000089501970895FC01918D828D981761F002
:10030000A28DAE0FBF2FB11D5D968C91928D9F5F18
:100310009F73928F90E008958FEF9FEF0895FC01F7
:10032000918D828D981731F0828DE80FF11D858DAA
:1003300090E008958FEF9FEF0895FC01918D228D3D
:10034000892F90E0805C9F4F821B91098F739927C2
:10035000089584EA93E00E949D0121E0892B09F42D
:1003600020E0822F089580E090E0892B29F00E9400
:10037000A90181110C9400000895FC01A48DA80F1F
:10038000B92FB11DA35ABF4F2C91848D90E00196D7
:100390008F739927848FA689B7892C93A089B189F7
:1003A0008C91837080648C93938D848D981306C098
:1003B0000288F389E02D80818F7D80830895EF92FC
:1003C000FF920F931F93CF93DF93EC0181E0888F0F
:1003D0009B8D8C8D98131AC0E889F989808185FFDF
:1003E00015C09FB7F894EE89FF896083E889F98981
:1003F00080818370806480839FBF81E090E0DF9183
:10040000CF911F910F91FF90EF900895F62E0B8DD5
:1004100010E00F5F1F4F0F731127E02E8C8D8E1190
:100420000CC00FB607FCFACFE889F989808185FFF7
:10043000F5CFCE010E94BD01F1CFEB8DEC0FFD2F6A
:10044000F11DE35AFF4FF0829FB7F8940B8FEA89B2
:10045000FB8980818062CFCFCF93DF93EC01888DC1
:100460008823B9F0AA89BB89E889F9898C9185FD2F
:1004700003C0808186FD0DC00FB607FCF7CF8C91BD
:1004800085FFF2CF808185FFEDCFCE010E94BD01B7
:10049000E9CFDF91CF910895833081F028F4813046
:1004A00099F08230A9F008958730A9F08830C9F01A
:1004B0008430B1F4809180008F7D03C080918000F2
:1004C0008F7780938000089584B58F7784BD0895D9
:1004D00084B58F7DFBCF8091B0008F778093B00083
:1004E00008958091B0008F7DF9CFCF93DF93282FAF
:1004F00030E0F901E255FF4F8491F901E656FF4FD4
:10050000D491F901EA57FF4FC491CC23A1F0811196
:100510000E944C02EC2FF0E0EE0FFF1FE458FF4F5B
:10052000A591B491EC91ED2381E090E009F480E095
:10053000DF91CF91089580E090E0FACF1F93CF93A1
:10054000DF93282F30E0F901E255FF4F8491F90144
:10055000E656FF4FD491F901EA57FF4FC491CC23DF
:10056000A9F0162F81110E944C02EC2FF0E0EE0F43
:10057000FF1FEE58FF4FA591B4918FB7F894EC91FF
:10058000111108C0D095DE23DC938FBFDF91CF918E
:100590001F910895DE2BF8CFCF93DF9390E0FC01FD
:1005A000E656FF4F24918A579F4FFC018491882380
:1005B000D1F090E0880F991FFC01E859FF4FA591F9
:1005C000B491FC01EE58FF4FC591D491623071F4A3
:1005D0009FB7F8943C91822F809583238C93E88178
:1005E0002E2B28839FBFDF91CF9108958FB7F8946A
:1005F000EC912E2B2C938FBFF6CF3FB7F8948091C0
:100600009B0390919C03A0919D03B0919E0326B5FE
:10061000A89B05C02F3F19F00196A11DB11D3FBF3A
:10062000BA2FA92F982F8827BC01CD01620F711D09
:10063000811D911D42E0660F771F881F991F4A9503
:10064000D1F708958F929F92AF92BF92CF92DF928F
:10065000EF92FF924B015C010E94FD026B017C0155
:100660000E94FD026C197D098E099F09683E734046
:1006700081059105A8F321E0821A9108A108B1082B
:1006800088EEC80E83E0D81EE11CF11C8114910491
:10069000A104B10429F7FF90EF90DF90CF90BF90B5
:1006A000AF909F908F900895EF92FF920F931F93BA
:1006B000CF93DF93EC01F12CE12C10E000E080916E
:1006C000730490917404DC01ED91FC910084F18538
:1006D000E02D0995892BB1F461E070E080E090E0B5
:1006E0000E942203BFEFEB1AFB0A88EEE81683E0B4
:1006F000F80628F38FEFDF91CF911F910F91FF90B4
:10070000EF9008958091730490917404DC01ED9151
:10071000FC910284F385E02D09950930110580F5DF
:10072000F801EB56FC4F0C94DF0C9E03A603B003BC
:10073000B003B003B003B503B703BA038F3E09F0AB
:10074000BECF188289830F5F1F4FB9CF28813981AF
:10075000282B3983288321303F4EA9F38EEFCBCF4E
:10076000FE01E00FF11F8083EECF8E83ECCF1F825E
:100770008887E9CF2F813885282B38872F83E3CFCF
:10078000FE01E00FF11F80832F813885C801089793
:1007900082179307C1F680E0AECF089590E080E025
:1007A000089588E00E947502892B41F088E00E943C
:1007B0007502892BD9F781E090E0089589E00E94C5
:1007C0007502892B41F089E00E947502892BD9F7C7
:1007D00082E090E008958AE00E947502892B41F042
:1007E0008AE00E947502892BD9F783E090E0089592
:1007F0008BE00E947502009739F08BE00E94750231
:10080000892BD9F784E090E00895CF93DF93CDB79B
:10081000DEB7C954D1090FB6F894DEBF0FBECDBF05
:1008200021E03FEE3A83298391E09F8322E030E08C
:10083000398728879FEF9B839C839D839E8392E0CB
:100840009A878B87CE0101960E948C00CE0101967B
:100850000E94540381110EC08F81873059F48A851C
:10086000C75BDF4F0FB6F894DEBF0FBECDBFDF9181
:10087000CF91089581E0F4CFCF93DF93CDB7DEB76A
:10088000C954D1090FB6F894DEBF0FBECDBF81E0C9
:100890009FEE9A83898391E09F8321E030E039873E
:1008A00028878FEF8B838C838D838E839A87CE01ED
:1008B00001960E948C00CE0101960E945403811182
:1008C0000EC08F81873059F48A85C75BDF4F0FB622
:1008D000F894DEBF0FBECDBFDF91CF91089581E0C8
:1008E000F4CFCF93DF93EC0160E08E810E949E02F3
:1008F00061E08E810E949E0260E08E810E949E02D5
:100900008BE891E00197F1F7DF91CF910895CF92B5
:10091000DF92EF92FF920F931F93CF93DF936C01BF
:100920007C0187E0E80EF11CD0E0C0E0062F10E06B
:10093000B8010C2E02C0759567950A94E2F76170B4
:10094000F70181917F010E949E022196C430D1055A
:1009500079F7C601DF91CF911F910F91FF90EF9032
:10096000DF90CF900C947104CF92DF92EF92FF92C0
:100970000F931F93CF93DF93EC01F62E642F8C819E
:100980000E949E028D818F3F19F060E00E949E02BE
:100990000F2D10E08F8584FF25C06E0187E0C80E03
:1009A000D11CF12CE12CB8010E2C02C07595679575
:1009B0000A94E2F76170F60181916F010E949E0234
:1009C000FFEFEF1AFF0A88E0E816F10461F7CE01A5
:1009D000DF91CF911F910F91FF90EF90DF90CF901B
:1009E0000C947104B80184E0759567958A95E1F7D8
:1009F000CE010E9487046F2DCE01DF91CF911F9110
:100A00000F91FF90EF90DF90CF900C94870440E01F
:100A1000682F89E794E00C94B40481E00E940705F4
:100A20008BE39FE10197F1F70895CF93DF93823035
:100A300029F49091880498609093880480938C04A2
:100A400010928D0480E480938E0480E180938F0463
:100A500080E58093900461E080917D040E94CC0247
:100A600080917E048F3F19F061E00E94CC0261E02A
:100A700080917F040E94CC02C9E7D4E09E012957EF
:100A800034408091880484FD0BC084E090E021967E
:100A90002817390744F461E08E810E94CC02EECF22
:100AA00088E090E0F4CF8BE39DE00197F1F760E000
:100AB00080917D040E949E0260E080917F040E94EC
:100AC0009E0280917E048F3F19F060E00E949E029A
:100AD0008091880484FD34C063E089E794E00E943B
:100AE0008704CBE4D6E4CE010197F1F763E089E710
:100AF00094E00E9487042197F1F763E089E794E08E
:100B00000E94870483E592E00197F1F762E089E7AC
:100B100094E00E9487048091880480620E94070507
:100B200084E0809389048CE00E9407050E940D05F3
:100B300082E080938A0486E0DF91CF910C940705D0
:100B400080620E9407058BE496E40197F1F780919B
:100B5000880480620E94070583E592E00197F1F71F
:100B60008091880480620E940705D5CF90918C0403
:100B7000891710F08FEF890FE82FF0E0E758FB4F4F
:100B8000848980680C94070541E00E94B40481E0E8
:100B900090E00895CF93DF938091A303823088F093
:100BA000C091A303CC2369F0C150C093A303D0E04C
:100BB000CE010E94A70C813099F7CE01DF91CF9131
:100BC0000895C091A303C13A10F4D0E0F6CFD0E06D
:100BD000C0E0F3CFCF93DF93C091A303C13A68F491
:100BE000CF5FC093A303D0E0CE010E94A70C813059
:100BF00099F7CE01DF91CF910895D0E0C0E0F9CF11
:100C0000FB0101900020E9F73197AF01461B570B1C
:100C1000DC01ED91FC910280F381E02D09948F922B
:100C20009F92AF92BF92EF92FF920F931F93CF9339
:100C3000DF93CDB7DEB7A1970FB6F894DEBF0FBE36
:100C4000CDBF7C01FA01CB0119A2223008F42AE0C1
:100C50008E010F5D1F4F822E912CB12CA12CBF0154
:100C6000A50194010E94BD0CF901CA016A300CF57E
:100C7000605DD8016E938D01232B242B252B79F7F2
:100C800090E080E0109721F0BD01C7010E940006AE
:100C9000A1960FB6F894DEBF0FBECDBFDF91CF9106
:100CA0001F910F91FF90EF90BF90AF909F908F900A
:100CB0000895695CDECFCF93DF93BC0184EA93E0B3
:100CC0000E940006EC0165E271E084EA93E00E9474
:100CD00000068C0F9D1FDF91CF9108950C940006A4
:100CE0001F920F920FB60F9211242F933F934F93A1
:100CF0005F936F937F938F939F93AF93BF93EF9384
:100D0000FF9384EA93E00E94BD01FF91EF91BF91B0
:100D1000AF919F918F917F916F915F914F913F9193
:100D20002F910F900FBE0F901F9018951F920F924A
:100D30000FB60F9211242F938F939F93EF93FF93EE
:100D4000E091B403F091B5038081E091BA03F09192
:100D5000BB0382FD1BC090818091BD038F5F8F73A9
:100D60002091BE03821741F0E091BD03F0E0EC5505
:100D7000FC4F958F8093BD03FF91EF919F918F91D1
:100D80002F910F900FBE0F901F9018958081F4CF78
:100D90001F920F920FB60F9211242F933F938F93B0
:100DA0009F93AF93BF938091970390919803A091E5
:100DB0009903B0919A033091960323E0230F2D37C6
:100DC00058F50196A11DB11D2093960380939703BA
:100DD00090939803A0939903B0939A0380919B03F7
:100DE00090919C03A0919D03B0919E030196A11D3B
:100DF000B11D80939B0390939C03A0939D03B0939C
:100E00009E03BF91AF919F918F913F912F910F9032
:100E10000FBE0F901F90189526E8230F0296A11D74
:100E2000B11DD2CF1F920F920FB60F9211242F93A4
:100E30003F938F939F93AF93BF93CF93DF93EF93A2
:100E4000FF93E091A103F091A203309749F0A685AA
:100E5000B7859585868D81FF12C08C91892391F489
:100E6000FF91EF91DF91CF91BF91AF919F918F91C2
:100E70003F912F910F900FBE0F901F9018958C915E
:100E8000892371F7A389B4899C91858980958923E9
:100E90008C93868997890197F1F7208D318DC685CE
:100EA000D78588E0D9011197F1F798818150D1F762
:100EB0008091A00390E001968F73992720919F0362
:100EC000281779F09091A0038093A003828D938DD1
:100ED0000197F1F7A389B4898C919589892B8C931B
:100EE000BFCF868D8160868FF1CFCF93DF93C4EA29
:100EF000D3E01B821A8288EE93E0A0E0B0E08C83FE
:100F00009D83AE83BF838BE091E09983888385ECDA
:100F100090E09D878C8784EC90E09F878E8780ECA3
:100F200090E0998B888B81EC90E09B8B8A8B82EC94
:100F300090E09D8B8C8B86EC90E09F8B8E8B198E36
:100F40001A8E1B8E1C8EE9E7F4E0138212828DE16B
:100F500091E09183808387E084838FEF858386E0AF
:100F6000868385E0878384E0808783E0818782E0D1
:100F700082871386148615861686178681E00E945E
:100F80001505E1E4F4E0178216821186108620E44C
:100F900030E033872287158614868FEF9FEFDC01C0
:100FA00086879787A08BB18B338B228B20E031EE25
:100FB000358B248B168A178A108E118E828F938F11
:100FC000A48FB58F15AA14AAD7ABC6ABD3ABC2AB4F
:100FD000DF91CF910895CF93DF93CDB7DEB7CF5494
:100FE000D1090FB6F894DEBF0FBECDBF789484B59B
:100FF000826084BD84B5816084BD85B5826085BD15
:1010000085B5816085BD80916E00816080936E00A2
:101010001092810080918100826080938100809194
:101020008100816080938100809180008160809345
:1010300080008091B10084608093B1008091B00005
:1010400081608093B00080917A00846080937A0000
:1010500080917A00826080937A0080917A0081602A
:1010600080937A0080917A00806880937A00109251
:10107000C10062E088E00E94CC0262E089E00E9448
:10108000CC0262E08AE00E94CC0262E08BE00E9427
:10109000CC0282E00E94150568E271E089E794E0E5
:1010A0000E946E0681E00E94B60565E371E089E763
:1010B00094E00E946E0664EF71E080E090E00E9490
:1010C000220368EE73E080E090E00E942203E0914A
:1010D0007704F0917804309741F1A089B18982E0DA
:1010E0008C93A089B1891C92A485B5851C92A68594
:1010F000B78580E18C93108EA489B58986E08C93A6
:10110000A289B3898C9180618C93A289B3898C91D7
:1011100088608C93A289B3898C9180688C930288B3
:10112000F389E02D80818F7D8083E0917504F091BB
:101130007604309709F477C0138E128E118E108EBC
:10114000178A168A82E490E0958F848F8485863191
:1011500008F03DC02FE030E0378B268B20E430E0F4
:10116000318F208F27E230E0338F228F90916800FB
:10117000883008F490C021E08E3008F420E081E04F
:1011800001C0880F2A95EAF7892B8093680094851F
:101190002DE630E0983050F02BE630E09E3030F015
:1011A0002CE630E0963110F030E020E0348B238BD9
:1011B000292F30E0983008F070C081E001C0880F1E
:1011C0009A95EAF7858B848D958D0197F1F7828D3D
:1011D000938D892B41F14091A1035091A203E41713
:1011E000F50709F14115510569F0DA0153962D9182
:1011F0003C91D9019C91DA0155968C918095892377
:10120000D9018C93868D8E7F868F1092A0031092C9
:101210009F03F093A203E093A103A389B4898C9167
:101220009589892B8C93EE24E3949FEEF92E25E08B
:10123000C22ED12C8CE0B82E1FEF0E940D0580E04D
:101240000E94B60565E471E089E794E00E946E06AD
:1012500081E00E94B60566E571E089E794E00E94AE
:101260006E060E94D1030097E1F38130910509F0E9
:10127000B2C181E08093000100910001013AD0F4F5
:10128000802E912CC4010E94A70C8823A9F00F5F27
:1012900000930001F1CF84E077CF9E3040F42850D6
:1012A000310981E001C0880F2A95EAF78BCF2E50D3
:1012B0003109F7CF912C812C80920001892869F5A2
:1012C0000E940D0580E00E94B6056EE571E089E799
:1012D00094E00E946E0681E00E94B60567E671E028
:1012E00089E794E00E946E0668EE73E080E090E08B
:1012F0000E9422036CED75E080E090E00E942203E2
:1013000080E090E0892B09F498CF0E94A9018823FE
:1013100009F490CF0E9400008DCF65E771E089E766
:1013200094E00E946E060E943C04813029F148F04E
:101330008230E9F0833029F10E940D0568EB71E0FD
:10134000EECF0E940D0568E871E089E794E00E9405
:101350006E0681E00E940504863009F45CC008F046
:10136000D4C1882399F0813009F417C151C10E947A
:101370000D0564E971E0D3CF0E940D0566E971E0C7
:10138000CECF0E940D056AEA71E0C9CF0E940D051B
:1013900066EC71E089E794E00E946E060E940D05FC
:1013A00066ED71E089E794E00E946E0660ED77E0FB
:1013B00080E090E00E9422030E943C048230E1F72A
:1013C0000E940D0568E172E089E794E00E946E06D4
:1013D0004091000150E070E060E02AE089E794E08D
:1013E0000E940F060E940D056CE172E089E794E00F
:1013F0000E946E060E943C04813009F4BDC0A0F03A
:10140000823009F4B4C0833009F4BBC00E940D05DA
:1014100068EB71E0EBCF0E940D0564EE71E089E7A7
:1014200094E00E946E0666CF0E940D0568E871E0A8
:1014300089E794E00E946E0682E00E9405048630EF
:1014400051F308F062C181118ECF0E940D0566EC48
:1014500071E089E794E00E946E060E940D0564E346
:1014600072E089E794E00E946E064091000150E02E
:1014700070E060E02AE089E794E00E940F06FA82BB
:10148000E98281E08F8381E090E0998788871B83E0
:101490001C831D831E8385E08A87CE0101960E94EE
:1014A0008C00CE0101960E94540381116FC08F8180
:1014B000873009F06BC08A8590E0009709F06AC018
:1014C0000E940D0565E472E089E794E00E946E06D3
:1014D0000E940D0568E172E089E794E00E946E06C3
:1014E0004091000150E070E060E02AE089E794E07C
:1014F0000E940F0690910001FA82E98281E08F83B9
:1015000024E030E0398728871B831C831D831E83DA
:1015100026E02A878B871C869D87CE0101960E9434
:101520008C00CE0101960E945403811131C08F813D
:10153000873071F58A8590E00097D9F50E940D05F6
:1015400060E772E089E794E00E946E064091000136
:1015500050E070E060E02AE089E794E00E940F0626
:101560008091000161E090E00E94AF0CC3CE0E9428
:101570000D0564E971E03ACF0E940D0566E971E05E
:1015800035CF0E940D056AEA71E030CF81E094CF3B
:1015900081E0D1CF8130910529F40E940D0566E9E3
:1015A00071E03DCF0A97A1F50E940D0565E572E057
:1015B00036CF8130910589F38B30910529F40E9453
:1015C0000D056EE772E02BCF489711F50E940D05CF
:1015D0006FE972E024CF8230910509F0B5C00E9416
:1015E0000D0566EB72E089E794E00E946E066CEDF3
:1015F00075E080E090E00E9422030E943C0481306C
:1016000061F258F0823009F48AC0833009F48CC04A
:101610000E940D0568EB71E002CF0E940D0568E89D
:1016200071E089E794E00E946E0681E00E94050463
:10163000863009F4F0CE08F068C0811194CE0E9483
:101640000D0566EC71E089E794E00E946E0686E085
:10165000E1E0F1E0DE01A65BBF4F01900D928A95BB
:10166000E1F7FA82E98281E08F8386E090E0998752
:1016700088871B831C831D831E83FE01E65BFF4F4F
:10168000DE011A9601900D928A95E1F7CE0101963E
:101690000E948C00CE0101960E94540381117DCFDF
:1016A0008F81873009F079CF8B859C859827892792
:1016B000982790934204809341048D859E859827B6
:1016C0008927982790934404809343048A85811145
:1016D00030C00E940D0566ED72E089E794E00E943B
:1016E0006E060E940D056BEE72E089E794E00E94A1
:1016F0006E06409141045091420470E060E02AE09F
:1017000089E794E00E940F06F5CD873019F0853106
:1017100009F07ECF0E940D0564EF71E080CE0E943B
:101720000D0563EC72E07BCE0E940D056AEA71E064
:1017300076CE813009F431CF893009F069CF0E942B
:101740000D0566EF72E06BCE8330910509F0D2C0D3
:101750000E940D0580E00E94B6050E94EA05809374
:10176000A3036BE073E089E794E00E946E0640916A
:10177000A30350E070E060E02AE089E794E00E9473
:101780000F0660E173E089E794E00E946E0662E173
:1017900073E089E794E00E946E0681E00E94B6053E
:1017A00069E173E089E794E00E946E0699249394BE
:1017B0000E94D103049709F49DCD0E94D1030297A2
:1017C00011F50E94D1030297E1F30E94EA0580938C
:1017D000A30380E00E94B6056BE073E089E794E024
:1017E0000E946E064091A30350E070E060E02AE0A2
:1017F00089E794E00E940F066AE273E089E794E0CB
:101800000E946E06D5CF0E94D103039739F40E943F
:10181000D1030397E1F30E94CA05D9CF0E94D103F7
:10182000019731F60E94D1030197E1F38091A30360
:101830002F961DAE1EAE1FAE2F97FA82E9829F82B1
:10184000D986C8861B831C831D831E832B96BFAE3F
:101850002B972C961FAE2C972D968FAF2D972F96EA
:101860009FAE2F9785E0FE01E65BFF4FDE011A96E3
:1018700001900D928A95E1F7CE0101960E948C00AD
:10188000CE0101960E94540381110AC08F818730D6
:1018900039F40A8583E393E0002321F0013059F401
:1018A00086E991E00E945B068091A30360E090E0EE
:1018B0000E94AF0CB0CF8CE393E00B3099F308316A
:1018C00019F48FE992E0EECF6EE573E084EA93E0DD
:1018D0000E946E06402F50E070E060E020E184EA54
:1018E00093E00E940F0665E271E084EA93E00E94B3
:1018F0000006DACF049709F003CD0E940D0580E0C1
:101900000E94B60560E773E089E794E00E946E06E6
:1019100064EF71E080E090E00E9422030E940D05D8
:1019200080E00E94B60569E773E089E794E00E94D1
:101930006E0681E00E94B60566E873E089E794E0F0
:101940000E946E0668EE73E080E090E0D7CCF999D3
:10195000FECF92BD81BDF89A992780B50895262FB4
:10196000F999FECF1FBA92BD81BD20BD0FB6F89484
:10197000FA9AF99A0FBE01960895A1E21A2EAA1BAF
:10198000BB1BFD010DC0AA1FBB1FEE1FFF1FA2172F
:10199000B307E407F50720F0A21BB30BE40BF50B2C
:1019A000661F771F881F991F1A9469F760957095B5
:1019B000809590959B01AC01BD01CF010895EE0F7C
:0E19C000FF1F0590F491E02D0994F894FFCFDD
:1019CE00011B01000000A300000000DF013F016CBD
:1019DE00012C029D017B018F0100000000C4053F18
:1019EE0001CE03CD030D0A002046494E4745525005
:1019FE0052494E5400415454454E44414E434520A5
:101A0E0044454D4F00313A456E726F6C6C20323A40
:101A1E005363616E2000333A44656C2020004E6F94
:101A2E002073706163650044656C2074656D706C25
:101A3E00657465730057616974696E6720666F72AD
:101A4E002066696E67657200496D61676520746115
:101A5E006B656E002E00436F6D6D756E69636174FC
:101A6E00696F6E206572726F7200496D6167696E83
:101A7E0067206572726F7200556E6B6E6F776E2097
:101A8E006572726F7200496D61676520636F6E7665
:101A9E0065727465640052656D6F76652066696E59
:101AAE0067657200496D61676520746F6F206D65A3
:101ABE0073737900436F756C64206E6F7420666962
:101ACE006E642066696E6765727072696E742066E8
:101ADE00656174757265730049442000506C6163D2
:101AEE00652073616D652066696E6765722061673A
:101AFE0061696E004372656174696E67206D6F6413
:101B0E00656C2023005072696E7473206D6174636E
:101B1E00686564210046696E6765727072696E74DD
:101B2E007320646964206E6F74206D617463680045
:101B3E0053746F7265642061742069642000436F72
:101B4E00756C64206E6F742073746F726520696E8D
:101B5E002074686174206C6F636174696F6E0045E8
:101B6E0072726F722077726974696E6720746F205B
:101B7E00666C61736800506C6163652046696E67C0
:101B8E006572004E6F2066696E67657220646574BB
:101B9E00656374656400466F756E642061207072B3
:101BAE00696E74206D617463682100466F756E6492
:101BBE00204944202300446964206E6F74206669B6
:101BCE006E642061206D61746368004944203C009E
:101BDE003E0020313A44656C00323A557020333A5B
:101BEE00446E20343A4261636B003E2020312D4416
:101BFE00656C0044656C657465642100436F756C9B
:101C0E0064206E6F742064656C65746520696E2047
:101C1E0074686174206C6F636174696F6E00556EC9
:101C2E006B6E6F776E206572726F723A203078002D
:101C3E00437265646974733A0052617A61756C20FF
:101C4E0048617175650049642D3137313832323053
:061C5E00333033350000B5
:00000001FF
